{
  "_format": "hh-sol-artifact-1",
  "contractName": "FoodTracking",
  "sourceName": "contracts/FoodTracking.sol",
  "abi": [
    {
      "inputs": [],
      "stateMutability": "nonpayable",
      "type": "constructor"
    },
    {
      "anonymous": false,
      "inputs": [
        {
          "indexed": true,
          "internalType": "string",
          "name": "itemId",
          "type": "string"
        }
      ],
      "name": "FoodItemConsumed",
      "type": "event"
    },
    {
      "anonymous": false,
      "inputs": [
        {
          "indexed": true,
          "internalType": "string",
          "name": "itemId",
          "type": "string"
        },
        {
          "indexed": false,
          "internalType": "string",
          "name": "productName",
          "type": "string"
        },
        {
          "indexed": false,
          "internalType": "string",
          "name": "origin",
          "type": "string"
        },
        {
          "indexed": false,
          "internalType": "uint256",
          "name": "sentTimestamp",
          "type": "uint256"
        }
      ],
      "name": "FoodItemSent",
      "type": "event"
    },
    {
      "anonymous": false,
      "inputs": [
        {
          "indexed": true,
          "internalType": "string",
          "name": "itemId",
          "type": "string"
        }
      ],
      "name": "FoodItemVerified",
      "type": "event"
    },
    {
      "inputs": [
        {
          "internalType": "string",
          "name": "itemId",
          "type": "string"
        }
      ],
      "name": "consumeFoodItem",
      "outputs": [],
      "stateMutability": "nonpayable",
      "type": "function"
    },
    {
      "inputs": [
        {
          "internalType": "string",
          "name": "",
          "type": "string"
        }
      ],
      "name": "foodItems",
      "outputs": [
        {
          "internalType": "string",
          "name": "itemId",
          "type": "string"
        },
        {
          "internalType": "string",
          "name": "productName",
          "type": "string"
        },
        {
          "internalType": "string",
          "name": "origin",
          "type": "string"
        },
        {
          "internalType": "uint256",
          "name": "sentTimestamp",
          "type": "uint256"
        },
        {
          "internalType": "enum FoodTracking.FoodStatus",
          "name": "status",
          "type": "uint8"
        }
      ],
      "stateMutability": "view",
      "type": "function"
    },
    {
      "inputs": [
        {
          "internalType": "string",
          "name": "itemId",
          "type": "string"
        }
      ],
      "name": "getFoodItemDetails",
      "outputs": [
        {
          "internalType": "string",
          "name": "",
          "type": "string"
        },
        {
          "internalType": "string",
          "name": "",
          "type": "string"
        },
        {
          "internalType": "uint256",
          "name": "",
          "type": "uint256"
        },
        {
          "internalType": "enum FoodTracking.FoodStatus",
          "name": "",
          "type": "uint8"
        }
      ],
      "stateMutability": "view",
      "type": "function"
    },
    {
      "inputs": [],
      "name": "owner",
      "outputs": [
        {
          "internalType": "address",
          "name": "",
          "type": "address"
        }
      ],
      "stateMutability": "view",
      "type": "function"
    },
    {
      "inputs": [
        {
          "internalType": "string",
          "name": "itemId",
          "type": "string"
        },
        {
          "internalType": "string",
          "name": "productName",
          "type": "string"
        },
        {
          "internalType": "string",
          "name": "origin",
          "type": "string"
        }
      ],
      "name": "sendFoodItem",
      "outputs": [],
      "stateMutability": "nonpayable",
      "type": "function"
    },
    {
      "inputs": [
        {
          "internalType": "string",
          "name": "itemId",
          "type": "string"
        }
      ],
      "name": "verifyFoodItem",
      "outputs": [],
      "stateMutability": "nonpayable",
      "type": "function"
    }
  ],
  "bytecode": "0x608060405234801561001057600080fd5b50336000806101000a81548173ffffffffffffffffffffffffffffffffffffffff021916908373ffffffffffffffffffffffffffffffffffffffff160217905550611407806100606000396000f3fe608060405234801561001057600080fd5b50600436106100625760003560e01c806308f52751146100675780632b4426c91461009a578063820cfd26146100b65780638da5cb5b146100ea57806391acc17214610108578063ca2f564714610124575b600080fd5b610081600480360381019061007c9190610d2b565b610140565b6040516100919493929190610e8c565b60405180910390f35b6100b460048036038101906100af9190610d2b565b610392565b005b6100d060048036038101906100cb9190610d2b565b6104b8565b6040516100e1959493929190610edf565b60405180910390f35b6100f26106a9565b6040516100ff9190610f88565b60405180910390f35b610122600480360381019061011d9190610fa3565b6106cd565b005b61013e60048036038101906101399190610d2b565b61090d565b005b60608060008060006001866040516101589190611086565b90815260200160405180910390206040518060a0016040529081600082018054610181906110cc565b80601f01602080910402602001604051908101604052809291908181526020018280546101ad906110cc565b80156101fa5780601f106101cf576101008083540402835291602001916101fa565b820191906000526020600020905b8154815290600101906020018083116101dd57829003601f168201915b50505050508152602001600182018054610213906110cc565b80601f016020809104026020016040519081016040528092919081815260200182805461023f906110cc565b801561028c5780601f106102615761010080835404028352916020019161028c565b820191906000526020600020905b81548152906001019060200180831161026f57829003601f168201915b505050505081526020016002820180546102a5906110cc565b80601f01602080910402602001604051908101604052809291908181526020018280546102d1906110cc565b801561031e5780601f106102f35761010080835404028352916020019161031e565b820191906000526020600020905b81548152906001019060200180831161030157829003601f168201915b50505050508152602001600382015481526020016004820160009054906101000a900460ff16600281111561035657610355610e15565b5b600281111561036857610367610e15565b5b81525050905080602001518160400151826060015183608001519450945094509450509193509193565b80600160028111156103a7576103a6610e15565b5b6001826040516103b79190611086565b908152602001604051809103902060040160009054906101000a900460ff1660028111156103e8576103e7610e15565b5b14610428576040517f08c379a000000000000000000000000000000000000000000000000000000000815260040161041f90611170565b60405180910390fd5b600260018360405161043a9190611086565b908152602001604051809103902060040160006101000a81548160ff0219169083600281111561046d5761046c610e15565b5b0217905550816040516104809190611086565b60405180910390207f10903cdad98900af2897d7e63e43696fd2ff20b6b781cc35e32cc9ecada0c2ec60405160405180910390a25050565b6001818051602081018201805184825260208301602085012081835280955050505050506000915090508060000180546104f1906110cc565b80601f016020809104026020016040519081016040528092919081815260200182805461051d906110cc565b801561056a5780601f1061053f5761010080835404028352916020019161056a565b820191906000526020600020905b81548152906001019060200180831161054d57829003601f168201915b50505050509080600101805461057f906110cc565b80601f01602080910402602001604051908101604052809291908181526020018280546105ab906110cc565b80156105f85780601f106105cd576101008083540402835291602001916105f8565b820191906000526020600020905b8154815290600101906020018083116105db57829003601f168201915b50505050509080600201805461060d906110cc565b80601f0160208091040260200160405190810160405280929190818152602001828054610639906110cc565b80156106865780601f1061065b57610100808354040283529160200191610686565b820191906000526020600020905b81548152906001019060200180831161066957829003601f168201915b5050505050908060030154908060040160009054906101000a900460ff16905085565b60008054906101000a900473ffffffffffffffffffffffffffffffffffffffff1681565b60008054906101000a900473ffffffffffffffffffffffffffffffffffffffff1673ffffffffffffffffffffffffffffffffffffffff163373ffffffffffffffffffffffffffffffffffffffff161461075b576040517f08c379a000000000000000000000000000000000000000000000000000000000815260040161075290611202565b60405180910390fd5b600060018460405161076d9190611086565b90815260200160405180910390206000018054610789906110cc565b9050146107cb576040517f08c379a00000000000000000000000000000000000000000000000000000000081526004016107c29061126e565b60405180910390fd5b6040518060a001604052808481526020018381526020018281526020014281526020016000600281111561080257610801610e15565b5b8152506001846040516108159190611086565b9081526020016040518091039020600082015181600001908051906020019061083f929190610b2e565b50602082015181600101908051906020019061085c929190610b2e565b506040820151816002019080519060200190610879929190610b2e565b506060820151816003015560808201518160040160006101000a81548160ff021916908360028111156108af576108ae610e15565b5b0217905550905050826040516108c59190611086565b60405180910390207f1deb5b3f1332885a208a3b03c4438c7daad01496d32418f03019bade53c0841e8383426040516109009392919061128e565b60405180910390a2505050565b60008054906101000a900473ffffffffffffffffffffffffffffffffffffffff1673ffffffffffffffffffffffffffffffffffffffff163373ffffffffffffffffffffffffffffffffffffffff161461099b576040517f08c379a000000000000000000000000000000000000000000000000000000000815260040161099290611202565b60405180910390fd5b60006001826040516109ad9190611086565b908152602001604051809103902060000180546109c9906110cc565b905011610a0b576040517f08c379a0000000000000000000000000000000000000000000000000000000008152600401610a029061131f565b60405180910390fd5b60006002811115610a1f57610a1e610e15565b5b600182604051610a2f9190611086565b908152602001604051809103902060040160009054906101000a900460ff166002811115610a6057610a5f610e15565b5b14610aa0576040517f08c379a0000000000000000000000000000000000000000000000000000000008152600401610a97906113b1565b60405180910390fd5b60018082604051610ab19190611086565b908152602001604051809103902060040160006101000a81548160ff02191690836002811115610ae457610ae3610e15565b5b021790555080604051610af79190611086565b60405180910390207f368cb808019f63c8cdd7e7087e42db5b33818a846fdd80e9527664749152415860405160405180910390a250565b828054610b3a906110cc565b90600052602060002090601f016020900481019282610b5c5760008555610ba3565b82601f10610b7557805160ff1916838001178555610ba3565b82800160010185558215610ba3579182015b82811115610ba2578251825591602001919060010190610b87565b5b509050610bb09190610bb4565b5090565b5b80821115610bcd576000816000905550600101610bb5565b5090565b6000604051905090565b600080fd5b600080fd5b600080fd5b600080fd5b6000601f19601f8301169050919050565b7f4e487b7100000000000000000000000000000000000000000000000000000000600052604160045260246000fd5b610c3882610bef565b810181811067ffffffffffffffff82111715610c5757610c56610c00565b5b80604052505050565b6000610c6a610bd1565b9050610c768282610c2f565b919050565b600067ffffffffffffffff821115610c9657610c95610c00565b5b610c9f82610bef565b9050602081019050919050565b82818337600083830152505050565b6000610cce610cc984610c7b565b610c60565b905082815260208101848484011115610cea57610ce9610bea565b5b610cf5848285610cac565b509392505050565b600082601f830112610d1257610d11610be5565b5b8135610d22848260208601610cbb565b91505092915050565b600060208284031215610d4157610d40610bdb565b5b600082013567ffffffffffffffff811115610d5f57610d5e610be0565b5b610d6b84828501610cfd565b91505092915050565b600081519050919050565b600082825260208201905092915050565b60005b83811015610dae578082015181840152602081019050610d93565b83811115610dbd576000848401525b50505050565b6000610dce82610d74565b610dd88185610d7f565b9350610de8818560208601610d90565b610df181610bef565b840191505092915050565b6000819050919050565b610e0f81610dfc565b82525050565b7f4e487b7100000000000000000000000000000000000000000000000000000000600052602160045260246000fd5b60038110610e5557610e54610e15565b5b50565b6000819050610e6682610e44565b919050565b6000610e7682610e58565b9050919050565b610e8681610e6b565b82525050565b60006080820190508181036000830152610ea68187610dc3565b90508181036020830152610eba8186610dc3565b9050610ec96040830185610e06565b610ed66060830184610e7d565b95945050505050565b600060a0820190508181036000830152610ef98188610dc3565b90508181036020830152610f0d8187610dc3565b90508181036040830152610f218186610dc3565b9050610f306060830185610e06565b610f3d6080830184610e7d565b9695505050505050565b600073ffffffffffffffffffffffffffffffffffffffff82169050919050565b6000610f7282610f47565b9050919050565b610f8281610f67565b82525050565b6000602082019050610f9d6000830184610f79565b92915050565b600080600060608486031215610fbc57610fbb610bdb565b5b600084013567ffffffffffffffff811115610fda57610fd9610be0565b5b610fe686828701610cfd565b935050602084013567ffffffffffffffff81111561100757611006610be0565b5b61101386828701610cfd565b925050604084013567ffffffffffffffff81111561103457611033610be0565b5b61104086828701610cfd565b9150509250925092565b600081905092915050565b600061106082610d74565b61106a818561104a565b935061107a818560208601610d90565b80840191505092915050565b60006110928284611055565b915081905092915050565b7f4e487b7100000000000000000000000000000000000000000000000000000000600052602260045260246000fd5b600060028204905060018216806110e457607f821691505b602082108114156110f8576110f761109d565b5b50919050565b7f4974656d206973206e6f74207665726966696564206f7220616c72656164792060008201527f636f6e73756d6564000000000000000000000000000000000000000000000000602082015250565b600061115a602883610d7f565b9150611165826110fe565b604082019050919050565b600060208201905081810360008301526111898161114d565b9050919050565b7f4f6e6c7920636f6e7472616374206f776e65722063616e2063616c6c2074686960008201527f7300000000000000000000000000000000000000000000000000000000000000602082015250565b60006111ec602183610d7f565b91506111f782611190565b604082019050919050565b6000602082019050818103600083015261121b816111df565b9050919050565b7f4974656d20616c72656164792065786973747300000000000000000000000000600082015250565b6000611258601383610d7f565b915061126382611222565b602082019050919050565b600060208201905081810360008301526112878161124b565b9050919050565b600060608201905081810360008301526112a88186610dc3565b905081810360208301526112bc8185610dc3565b90506112cb6040830184610e06565b949350505050565b7f4974656d20646f6573206e6f7420657869737400000000000000000000000000600082015250565b6000611309601383610d7f565b9150611314826112d3565b602082019050919050565b60006020820190508181036000830152611338816112fc565b9050919050565b7f4974656d20697320616c7265616479207665726966696564206f7220636f6e7360008201527f756d656400000000000000000000000000000000000000000000000000000000602082015250565b600061139b602483610d7f565b91506113a68261133f565b604082019050919050565b600060208201905081810360008301526113ca8161138e565b905091905056fea2646970667358221220ff6b7a3294ab7155e76303074994f08732a61139a7d9fc1be3228b388339938664736f6c634300080a0033",
  "linkReferences": {},
  "deployedLinkReferences": {}
}